{
  "_format": "hh3-artifact-1",
  "contractName": "Delance",
  "sourceName": "contracts/Delance.sol",
  "abi": [
    {
      "inputs": [],
      "stateMutability": "nonpayable",
      "type": "constructor"
    },
    {
      "inputs": [
        {
          "internalType": "address",
          "name": "sender",
          "type": "address"
        },
        {
          "internalType": "uint256",
          "name": "tokenId",
          "type": "uint256"
        },
        {
          "internalType": "address",
          "name": "owner",
          "type": "address"
        }
      ],
      "name": "ERC721IncorrectOwner",
      "type": "error"
    },
    {
      "inputs": [
        {
          "internalType": "address",
          "name": "operator",
          "type": "address"
        },
        {
          "internalType": "uint256",
          "name": "tokenId",
          "type": "uint256"
        }
      ],
      "name": "ERC721InsufficientApproval",
      "type": "error"
    },
    {
      "inputs": [
        {
          "internalType": "address",
          "name": "approver",
          "type": "address"
        }
      ],
      "name": "ERC721InvalidApprover",
      "type": "error"
    },
    {
      "inputs": [
        {
          "internalType": "address",
          "name": "operator",
          "type": "address"
        }
      ],
      "name": "ERC721InvalidOperator",
      "type": "error"
    },
    {
      "inputs": [
        {
          "internalType": "address",
          "name": "owner",
          "type": "address"
        }
      ],
      "name": "ERC721InvalidOwner",
      "type": "error"
    },
    {
      "inputs": [
        {
          "internalType": "address",
          "name": "receiver",
          "type": "address"
        }
      ],
      "name": "ERC721InvalidReceiver",
      "type": "error"
    },
    {
      "inputs": [
        {
          "internalType": "address",
          "name": "sender",
          "type": "address"
        }
      ],
      "name": "ERC721InvalidSender",
      "type": "error"
    },
    {
      "inputs": [
        {
          "internalType": "uint256",
          "name": "tokenId",
          "type": "uint256"
        }
      ],
      "name": "ERC721NonexistentToken",
      "type": "error"
    },
    {
      "anonymous": false,
      "inputs": [
        {
          "indexed": true,
          "internalType": "address",
          "name": "owner",
          "type": "address"
        },
        {
          "indexed": true,
          "internalType": "address",
          "name": "approved",
          "type": "address"
        },
        {
          "indexed": true,
          "internalType": "uint256",
          "name": "tokenId",
          "type": "uint256"
        }
      ],
      "name": "Approval",
      "type": "event"
    },
    {
      "anonymous": false,
      "inputs": [
        {
          "indexed": true,
          "internalType": "address",
          "name": "owner",
          "type": "address"
        },
        {
          "indexed": true,
          "internalType": "address",
          "name": "operator",
          "type": "address"
        },
        {
          "indexed": false,
          "internalType": "bool",
          "name": "approved",
          "type": "bool"
        }
      ],
      "name": "ApprovalForAll",
      "type": "event"
    },
    {
      "anonymous": false,
      "inputs": [
        {
          "indexed": true,
          "internalType": "uint256",
          "name": "gigId",
          "type": "uint256"
        },
        {
          "indexed": true,
          "internalType": "address",
          "name": "freelancer",
          "type": "address"
        }
      ],
      "name": "GigCompleted",
      "type": "event"
    },
    {
      "anonymous": false,
      "inputs": [
        {
          "indexed": true,
          "internalType": "uint256",
          "name": "gigId",
          "type": "uint256"
        },
        {
          "indexed": true,
          "internalType": "address",
          "name": "client",
          "type": "address"
        },
        {
          "indexed": true,
          "internalType": "address",
          "name": "freelancer",
          "type": "address"
        },
        {
          "indexed": false,
          "internalType": "uint256",
          "name": "amount",
          "type": "uint256"
        }
      ],
      "name": "GigFunded",
      "type": "event"
    },
    {
      "anonymous": false,
      "inputs": [
        {
          "indexed": true,
          "internalType": "address",
          "name": "from",
          "type": "address"
        },
        {
          "indexed": true,
          "internalType": "address",
          "name": "to",
          "type": "address"
        },
        {
          "indexed": true,
          "internalType": "uint256",
          "name": "tokenId",
          "type": "uint256"
        }
      ],
      "name": "Transfer",
      "type": "event"
    },
    {
      "inputs": [
        {
          "internalType": "address",
          "name": "to",
          "type": "address"
        },
        {
          "internalType": "uint256",
          "name": "tokenId",
          "type": "uint256"
        }
      ],
      "name": "approve",
      "outputs": [],
      "stateMutability": "nonpayable",
      "type": "function"
    },
    {
      "inputs": [
        {
          "internalType": "uint256",
          "name": "_gigId",
          "type": "uint256"
        }
      ],
      "name": "approveAndPay",
      "outputs": [],
      "stateMutability": "nonpayable",
      "type": "function"
    },
    {
      "inputs": [
        {
          "internalType": "address",
          "name": "owner",
          "type": "address"
        }
      ],
      "name": "balanceOf",
      "outputs": [
        {
          "internalType": "uint256",
          "name": "",
          "type": "uint256"
        }
      ],
      "stateMutability": "view",
      "type": "function"
    },
    {
      "inputs": [
        {
          "internalType": "address",
          "name": "_freelancer",
          "type": "address"
        }
      ],
      "name": "createAndFundGig",
      "outputs": [],
      "stateMutability": "payable",
      "type": "function"
    },
    {
      "inputs": [
        {
          "internalType": "uint256",
          "name": "tokenId",
          "type": "uint256"
        }
      ],
      "name": "getApproved",
      "outputs": [
        {
          "internalType": "address",
          "name": "",
          "type": "address"
        }
      ],
      "stateMutability": "view",
      "type": "function"
    },
    {
      "inputs": [
        {
          "internalType": "uint256",
          "name": "",
          "type": "uint256"
        }
      ],
      "name": "gigs",
      "outputs": [
        {
          "internalType": "uint256",
          "name": "gigId",
          "type": "uint256"
        },
        {
          "internalType": "address",
          "name": "client",
          "type": "address"
        },
        {
          "internalType": "address",
          "name": "freelancer",
          "type": "address"
        },
        {
          "internalType": "uint256",
          "name": "payoutAmount",
          "type": "uint256"
        },
        {
          "internalType": "enum Delance.GigStatus",
          "name": "status",
          "type": "uint8"
        }
      ],
      "stateMutability": "view",
      "type": "function"
    },
    {
      "inputs": [
        {
          "internalType": "address",
          "name": "owner",
          "type": "address"
        },
        {
          "internalType": "address",
          "name": "operator",
          "type": "address"
        }
      ],
      "name": "isApprovedForAll",
      "outputs": [
        {
          "internalType": "bool",
          "name": "",
          "type": "bool"
        }
      ],
      "stateMutability": "view",
      "type": "function"
    },
    {
      "inputs": [],
      "name": "name",
      "outputs": [
        {
          "internalType": "string",
          "name": "",
          "type": "string"
        }
      ],
      "stateMutability": "view",
      "type": "function"
    },
    {
      "inputs": [
        {
          "internalType": "uint256",
          "name": "tokenId",
          "type": "uint256"
        }
      ],
      "name": "ownerOf",
      "outputs": [
        {
          "internalType": "address",
          "name": "",
          "type": "address"
        }
      ],
      "stateMutability": "view",
      "type": "function"
    },
    {
      "inputs": [
        {
          "internalType": "address",
          "name": "from",
          "type": "address"
        },
        {
          "internalType": "address",
          "name": "to",
          "type": "address"
        },
        {
          "internalType": "uint256",
          "name": "tokenId",
          "type": "uint256"
        }
      ],
      "name": "safeTransferFrom",
      "outputs": [],
      "stateMutability": "nonpayable",
      "type": "function"
    },
    {
      "inputs": [
        {
          "internalType": "address",
          "name": "from",
          "type": "address"
        },
        {
          "internalType": "address",
          "name": "to",
          "type": "address"
        },
        {
          "internalType": "uint256",
          "name": "tokenId",
          "type": "uint256"
        },
        {
          "internalType": "bytes",
          "name": "data",
          "type": "bytes"
        }
      ],
      "name": "safeTransferFrom",
      "outputs": [],
      "stateMutability": "nonpayable",
      "type": "function"
    },
    {
      "inputs": [
        {
          "internalType": "address",
          "name": "operator",
          "type": "address"
        },
        {
          "internalType": "bool",
          "name": "approved",
          "type": "bool"
        }
      ],
      "name": "setApprovalForAll",
      "outputs": [],
      "stateMutability": "nonpayable",
      "type": "function"
    },
    {
      "inputs": [
        {
          "internalType": "bytes4",
          "name": "interfaceId",
          "type": "bytes4"
        }
      ],
      "name": "supportsInterface",
      "outputs": [
        {
          "internalType": "bool",
          "name": "",
          "type": "bool"
        }
      ],
      "stateMutability": "view",
      "type": "function"
    },
    {
      "inputs": [],
      "name": "symbol",
      "outputs": [
        {
          "internalType": "string",
          "name": "",
          "type": "string"
        }
      ],
      "stateMutability": "view",
      "type": "function"
    },
    {
      "inputs": [
        {
          "internalType": "uint256",
          "name": "tokenId",
          "type": "uint256"
        }
      ],
      "name": "tokenURI",
      "outputs": [
        {
          "internalType": "string",
          "name": "",
          "type": "string"
        }
      ],
      "stateMutability": "view",
      "type": "function"
    },
    {
      "inputs": [
        {
          "internalType": "address",
          "name": "from",
          "type": "address"
        },
        {
          "internalType": "address",
          "name": "to",
          "type": "address"
        },
        {
          "internalType": "uint256",
          "name": "tokenId",
          "type": "uint256"
        }
      ],
      "name": "transferFrom",
      "outputs": [],
      "stateMutability": "nonpayable",
      "type": "function"
    }
  ],
  "bytecode": "0x608060405234801562000010575f80fd5b50604051806040016040528060128152602001712232b630b731b2902932b83aba30ba34b7b760711b8152506040518060400160405280600381526020016222262960e91b815250815f908162000068919062000120565b50600162000077828262000120565b505050620001e8565b634e487b7160e01b5f52604160045260245ffd5b600181811c90821680620000a957607f821691505b602082108103620000c857634e487b7160e01b5f52602260045260245ffd5b50919050565b601f8211156200011b575f81815260208120601f850160051c81016020861015620000f65750805b601f850160051c820191505b81811015620001175782815560010162000102565b5050505b505050565b81516001600160401b038111156200013c576200013c62000080565b62000154816200014d845462000094565b84620000ce565b602080601f8311600181146200018a575f8415620001725750858301515b5f19600386901b1c1916600185901b17855562000117565b5f85815260208120601f198616915b82811015620001ba5788860151825594840194600190910190840162000199565b5085821015620001d857878501515f19600388901b60f8161c191681555b5050505050600190811b01905550565b61143180620001f65f395ff3fe6080604052600436106100ef575f3560e01c80636352211e11610087578063b88d4fde11610057578063b88d4fde146102e4578063c87b56dd14610303578063dad6d62514610322578063e985e9c514610335575f80fd5b80636352211e1461026557806370a082311461028457806395d89b41146102b1578063a22cb465146102c5575f80fd5b8063095ea7b3116100c2578063095ea7b3146101a057806323b872dd146101bf57806342842e0e146101de5780635e3fbdc8146101fd575f80fd5b806301ffc9a7146100f357806306fdde03146101275780630789700714610148578063081812fc14610169575b5f80fd5b3480156100fe575f80fd5b5061011261010d36600461103c565b610354565b60405190151581526020015b60405180910390f35b348015610132575f80fd5b5061013b6103a5565b60405161011e91906110a4565b348015610153575f80fd5b506101676101623660046110b6565b610434565b005b348015610174575f80fd5b506101886101833660046110b6565b61061e565b6040516001600160a01b03909116815260200161011e565b3480156101ab575f80fd5b506101676101ba3660046110e8565b610645565b3480156101ca575f80fd5b506101676101d9366004611110565b610654565b3480156101e9575f80fd5b506101676101f8366004611110565b6106dd565b348015610208575f80fd5b506102546102173660046110b6565b60086020525f90815260409020805460018201546002830154600384015460049094015492936001600160a01b0392831693929091169160ff1685565b60405161011e95949392919061115d565b348015610270575f80fd5b5061018861027f3660046110b6565b6106fc565b34801561028f575f80fd5b506102a361029e3660046111ae565b610706565b60405190815260200161011e565b3480156102bc575f80fd5b5061013b61074b565b3480156102d0575f80fd5b506101676102df3660046111c7565b61075a565b3480156102ef575f80fd5b506101676102fe366004611214565b610765565b34801561030e575f80fd5b5061013b61031d3660046110b6565b61077d565b6101676103303660046111ae565b6107ee565b348015610340575f80fd5b5061011261034f3660046112e9565b610936565b5f6001600160e01b031982166380ac58cd60e01b148061038457506001600160e01b03198216635b5e139f60e01b145b8061039f57506301ffc9a760e01b6001600160e01b03198316145b92915050565b60605f80546103b39061131a565b80601f01602080910402602001604051908101604052809291908181526020018280546103df9061131a565b801561042a5780601f106104015761010080835404028352916020019161042a565b820191905f5260205f20905b81548152906001019060200180831161040d57829003601f168201915b5050505050905090565b5f81815260086020526040902060018101546001600160a01b031633146104a25760405162461bcd60e51b815260206004820152601760248201527f4f6e6c7920636c69656e742063616e20617070726f766500000000000000000060448201526064015b60405180910390fd5b5f600482015460ff1660018111156104bc576104bc611149565b146105095760405162461bcd60e51b815260206004820152601760248201527f476967206e6f7420696e2066756e6465642073746174650000000000000000006044820152606401610499565b60048101805460ff19166001179055600281015460038201546040515f926001600160a01b031691908381818185875af1925050503d805f8114610568576040519150601f19603f3d011682016040523d82523d5f602084013e61056d565b606091505b50509050806105af5760405162461bcd60e51b815260206004820152600e60248201526d14185e5b595b9d0819985a5b195960921b6044820152606401610499565b60078054905f6105be83611352565b909155505060028201546007546105de916001600160a01b031690610963565b60028201546040516001600160a01b039091169084907f967ec8d54fd302c10a327c1eb8badfc1e717bf26bf8878d136de9da00f5ecec4905f90a3505050565b5f6106288261097c565b505f828152600460205260409020546001600160a01b031661039f565b6106508282336109b4565b5050565b6001600160a01b03821661067d57604051633250574960e11b81525f6004820152602401610499565b5f6106898383336109c1565b9050836001600160a01b0316816001600160a01b0316146106d7576040516364283d7b60e01b81526001600160a01b0380861660048301526024820184905282166044820152606401610499565b50505050565b6106f783838360405180602001604052805f815250610765565b505050565b5f61039f8261097c565b5f6001600160a01b038216610730576040516322718ad960e21b81525f6004820152602401610499565b506001600160a01b03165f9081526003602052604090205490565b6060600180546103b39061131a565b610650338383610ab3565b610770848484610654565b6106d73385858585610b51565b60606107888261097c565b505f61079e60408051602081019091525f815290565b90505f8151116107bc5760405180602001604052805f8152506107e7565b806107c684610c79565b6040516020016107d7929190611376565b6040516020818303038152906040525b9392505050565b5f34116108325760405162461bcd60e51b815260206004820152601260248201527105061796f7574206d757374206265203e20360741b6044820152606401610499565b60068054905f61084183611352565b90915550506006546040805160a0810182528281523360208083019182526001600160a01b0386811684860190815234606086019081525f60808701818152898252600890955296909620855181559351600180860180549285166001600160a01b03199384161790559151600286018054919094169116179091559351600383015551600482018054939492939192909160ff19169083818111156108e9576108e9611149565b0217905550506040513481526001600160a01b0384169150339083907f59fb65677d2c17d10376a197ea350f7196a55be3623381a712f755b7807ad42f9060200160405180910390a45050565b6001600160a01b039182165f90815260056020908152604080832093909416825291909152205460ff1690565b610650828260405180602001604052805f815250610d09565b5f818152600260205260408120546001600160a01b03168061039f57604051637e27328960e01b815260048101849052602401610499565b6106f78383836001610d20565b5f828152600260205260408120546001600160a01b03908116908316156109ed576109ed818486610e24565b6001600160a01b03811615610a2757610a085f855f80610d20565b6001600160a01b0381165f90815260036020526040902080545f190190555b6001600160a01b03851615610a55576001600160a01b0385165f908152600360205260409020805460010190555b5f8481526002602052604080822080546001600160a01b0319166001600160a01b0389811691821790925591518793918516917fddf252ad1be2c89b69c2b068fc378daa952ba7f163c4a11628f55a4df523b3ef91a4949350505050565b6001600160a01b038216610ae557604051630b61174360e31b81526001600160a01b0383166004820152602401610499565b6001600160a01b038381165f81815260056020908152604080832094871680845294825291829020805460ff191686151590811790915591519182527f17307eab39ab6107e8899845ad3d59bd9653f200f220920489ca2b5937696c31910160405180910390a3505050565b6001600160a01b0383163b15610c7257604051630a85bd0160e11b81526001600160a01b0384169063150b7a0290610b939088908890879087906004016113a4565b6020604051808303815f875af1925050508015610bcd575060408051601f3d908101601f19168201909252610bca918101906113e0565b60015b610c34573d808015610bfa576040519150601f19603f3d011682016040523d82523d5f602084013e610bff565b606091505b5080515f03610c2c57604051633250574960e11b81526001600160a01b0385166004820152602401610499565b805160208201fd5b6001600160e01b03198116630a85bd0160e11b14610c7057604051633250574960e11b81526001600160a01b0385166004820152602401610499565b505b5050505050565b60605f610c8583610e88565b60010190505f8167ffffffffffffffff811115610ca457610ca4611200565b6040519080825280601f01601f191660200182016040528015610cce576020820181803683370190505b5090508181016020015b5f19016f181899199a1a9b1b9c1cb0b131b232b360811b600a86061a8153600a8504945084610cd857509392505050565b610d138383610f5f565b6106f7335f858585610b51565b8080610d3457506001600160a01b03821615155b15610df5575f610d438461097c565b90506001600160a01b03831615801590610d6f5750826001600160a01b0316816001600160a01b031614155b8015610d825750610d808184610936565b155b15610dab5760405163a9fbf51f60e01b81526001600160a01b0384166004820152602401610499565b8115610df35783856001600160a01b0316826001600160a01b03167f8c5be1e5ebec7d5bd14f71427d1e84f3dd0314c0f7b2291e5b200ac8c7c3b92560405160405180910390a45b505b50505f90815260046020526040902080546001600160a01b0319166001600160a01b0392909216919091179055565b610e2f838383610fc0565b6106f7576001600160a01b038316610e5d57604051637e27328960e01b815260048101829052602401610499565b60405163177e802f60e01b81526001600160a01b038316600482015260248101829052604401610499565b5f8072184f03e93ff9f4daa797ed6e38ed64bf6a1f0160401b8310610ec65772184f03e93ff9f4daa797ed6e38ed64bf6a1f0160401b830492506040015b6d04ee2d6d415b85acef81000000008310610ef2576d04ee2d6d415b85acef8100000000830492506020015b662386f26fc100008310610f1057662386f26fc10000830492506010015b6305f5e1008310610f28576305f5e100830492506008015b6127108310610f3c57612710830492506004015b60648310610f4e576064830492506002015b600a831061039f5760010192915050565b6001600160a01b038216610f8857604051633250574960e11b81525f6004820152602401610499565b5f610f9483835f6109c1565b90506001600160a01b038116156106f7576040516339e3563760e11b81525f6004820152602401610499565b5f6001600160a01b0383161580159061101c5750826001600160a01b0316846001600160a01b03161480610ff95750610ff98484610936565b8061101c57505f828152600460205260409020546001600160a01b038481169116145b949350505050565b6001600160e01b031981168114611039575f80fd5b50565b5f6020828403121561104c575f80fd5b81356107e781611024565b5f5b83811015611071578181015183820152602001611059565b50505f910152565b5f8151808452611090816020860160208601611057565b601f01601f19169290920160200192915050565b602081525f6107e76020830184611079565b5f602082840312156110c6575f80fd5b5035919050565b80356001600160a01b03811681146110e3575f80fd5b919050565b5f80604083850312156110f9575f80fd5b611102836110cd565b946020939093013593505050565b5f805f60608486031215611122575f80fd5b61112b846110cd565b9250611139602085016110cd565b9150604084013590509250925092565b634e487b7160e01b5f52602160045260245ffd5b8581526001600160a01b038581166020830152841660408201526060810183905260a081016002831061119e57634e487b7160e01b5f52602160045260245ffd5b8260808301529695505050505050565b5f602082840312156111be575f80fd5b6107e7826110cd565b5f80604083850312156111d8575f80fd5b6111e1836110cd565b9150602083013580151581146111f5575f80fd5b809150509250929050565b634e487b7160e01b5f52604160045260245ffd5b5f805f8060808587031215611227575f80fd5b611230856110cd565b935061123e602086016110cd565b925060408501359150606085013567ffffffffffffffff80821115611261575f80fd5b818701915087601f830112611274575f80fd5b81358181111561128657611286611200565b604051601f8201601f19908116603f011681019083821181831017156112ae576112ae611200565b816040528281528a60208487010111156112c6575f80fd5b826020860160208301375f60208483010152809550505050505092959194509250565b5f80604083850312156112fa575f80fd5b611303836110cd565b9150611311602084016110cd565b90509250929050565b600181811c9082168061132e57607f821691505b60208210810361134c57634e487b7160e01b5f52602260045260245ffd5b50919050565b5f6001820161136f57634e487b7160e01b5f52601160045260245ffd5b5060010190565b5f8351611387818460208801611057565b83519083019061139b818360208801611057565b01949350505050565b6001600160a01b03858116825284166020820152604081018390526080606082018190525f906113d690830184611079565b9695505050505050565b5f602082840312156113f0575f80fd5b81516107e78161102456fea2646970667358221220f3b48aff2a0ce7a5f3018708a6627e8b14fd33f709a1d25b3812ab4312fd10db64736f6c63430008140033",
  "linkReferences": {},
  "deployedLinkReferences": {},
  "immutableReferences": {},
  "inputSourceName": "project/contracts/Delance.sol",
  "buildInfoId": "solc-0_8_20-83c936219d8fb6643a5160ab5fb3ddf5a56d411d"
}